:100000000C946C000C949F050C9478050C941505C9
:100010000C94B2040C9441040C9494000C9494003D
:100020000C9494000C9494000C9494000C94940000
:100030000C9494000C9494000C9494000C949400F0
:100040000C949F030C9494000C940F040C94E903FB
:100050000C9494000C9494000C9494000C949400D0
:100060000C9494000C94940000010203040506070C
:100070000001020304050001020304050000000062
:10008000240027002A0000000000250028002B0083
:1000900000000000230026002900040404040404D6
:1000A0000404020202020202030303030303010227
:1000B00004081020408001020408102001020408F6
:1000C00010200000000800020100000304070000E7
:1000D000000000000000E30A11241FBECFEFD8E0AB
:1000E000DEBFCDBF11E0A0E0B1E0EAE3FBE102C07A
:1000F00005900D92A43DB107D9F722E0A4EDB1E03F
:1001000001C01D92A93EB207E1F710E0CCE6D0E0B5
:1001100004C02197FE010E94E30BCB36D107C9F73B
:100120000E94C6050C949B0D0C940000833081F056
:1001300028F4813099F08230A9F008958730A9F031
:100140008830C9F08430B1F4809180008F7D03C085
:10015000809180008F7780938000089584B58F7799
:1001600084BD089584B58F7DFBCF8091B0008F77DB
:100170008093B00008958091B0008F7DF9CFCF9328
:10018000DF93282F30E0F901EE53FF4F8491F901FE
:10019000E255FF4FD491F901E656FF4FC491CC23AD
:1001A000A1F081110E949600EC2FF0E0EE0FFF1FEE
:1001B000E057FF4FA591B491EC91ED2381E090E0E1
:1001C00009F480E0DF91CF91089580E090E0FACFCC
:1001D0001F93CF93DF93282F30E0F901EE53FF4FA9
:1001E0008491F901E255FF4FD491F901E656FF4F92
:1001F000C491CC23A9F0162F81110E949600EC2FF8
:10020000F0E0EE0FFF1FEA57FF4FA591B4918FB7B3
:10021000F894EC91111108C0D095DE23DC938FBFC8
:10022000DF91CF911F910895DE2BF8CFCF93DF930D
:1002300090E0FC01E255FF4F249186569F4FFC0150
:1002400084918823D1F090E0880F991FFC01E45835
:10025000FF4FA591B491FC01EA57FF4FC591D4918E
:1002600061110EC09FB7F8948C91E22FE0958E2318
:100270008C932881E223E8839FBFDF91CF9108957B
:100280008FB7F894EC91E22BEC938FBFF6CF3FB78A
:10029000F8948091480290914902A0914A02B0914D
:1002A0004B0226B5A89B05C02F3F19F00196A11D52
:1002B000B11D3FBFBA2FA92F982F8827BC01CD01B0
:1002C000620F711D811D911D42E0660F771F881F0F
:1002D000991F4A95D1F708952FB7F8946091440279
:1002E0007091450280914602909147022FBF089578
:1002F0000895AF92BF92CF92DF92EF92FF920F9349
:100300001F93CF93DF936C017B018B01040F151FAB
:10031000EB015E01AE18BF08C017D10759F0699113
:10032000D601ED91FC910190F081E02DC601099577
:10033000892B79F7C501DF91CF911F910F91FF9024
:10034000EF90DF90CF90BF90AF900895FC01538D58
:10035000448D252F30E0842F90E0821B930B54179F
:1003600010F0CF96089501970895FC01918D828D2C
:10037000981761F0A28DAE0FBF2FB11D5D968C91C5
:10038000928D9F5F9F73928F90E008958FEF9FEF04
:100390000895FC01918D828D981731F0828DE80FC0
:1003A000F11D858D90E008958FEF9FEF0895FC017A
:1003B000918D228D892F90E0805C9F4F821B910947
:1003C0008F73992708958CE492E00E94D70121E071
:1003D000892B09F420E0822F089580E090E0892B9A
:1003E00029F00E94E30181110C9400000895FC01A2
:1003F000A48DA80FB92FB11DA35ABF4F2C91848D86
:1004000090E001968F739927848FA689B7892C93E2
:10041000A089B1898C91837080648C93938D848D35
:10042000981306C00288F389E02D80818F7D808338
:100430000895EF92FF920F931F93CF93DF93EC01F8
:1004400081E0888F9B8D8C8D98131AC0E889F9897B
:10045000808185FF15C09FB7F894EE89FF8960837E
:10046000E889F98980818370806480839FBF81E0FF
:1004700090E0DF91CF911F910F91FF90EF90089541
:10048000F62E0B8D10E00F5F1F4F0F731127E02E1C
:100490008C8D8E110CC00FB607FCFACFE889F98954
:1004A000808185FFF5CFCE010E94F701F1CFEB8D62
:1004B000EC0FFD2FF11DE35AFF4FF0829FB7F89428
:1004C0000B8FEA89FB8980818062CFCFCF93DF9346
:1004D000EC01888D8823B9F0AA89BB89E889F9895C
:1004E0008C9185FD03C0808186FD0DC00FB607FC91
:1004F000F7CF8C9185FFF2CF808185FFEDCFCE01C4
:100500000E94F701E9CFDF91CF910895CF92DF925A
:10051000EF92FF926091020170910301072E000C8F
:10052000880B990B0E94A20C2DEC3CEC4CEC5DE38B
:100530000E942E0D9B01AC0160E070E080E89FE31B
:100540000E94FD0B6B017C01609108017091090113
:10055000072E000C880B990B0E94A20CA701960194
:100560000E942E0D0E946A0C70930901609308018D
:100570006091060170910701072E000C880B990B02
:100580000E94A20CA70196010E942E0D0E946A0CE7
:100590007093070160930601FF90EF90DF90CF907A
:1005A0000895FC0101900020E9F73197AF01481B45
:1005B000590BBC018CE492E00C947901CF93DF934A
:1005C0000E94D102EC0182E391E00E94D1028C0FE3
:1005D0009D1FDF91CF9108958F929F92AF92BF920E
:1005E000CF92DF92EF92FF920F931F93CF93DF93FF
:1005F000CDB7DEB7A1970FB6F894DEBF0FBECDBF63
:100600006C01990FEE08FF08F7FE47C06DE28CE41D
:1006100092E00E9419028C0122273327A9012C198C
:100620003D094E095F0919A2CE0181967C019AE02D
:10063000892E912CA12CB12CCA01B901A5019401DC
:100640000E949E0B605DF70162937F0121153105C9
:100650004105510589F790E080E0309719F0CF010E
:100660000E94D102080F191F82E391E00E94D1027B
:10067000800F911FA1960FB6F894DEBF0FBECDBFBD
:10068000DF91CF911F910F91FF90EF90DF90CF906E
:10069000BF90AF909F908F900895A701960119A2E7
:1006A0008E010F5D1F4F8AE0C82ED12CE12CF12C5A
:1006B000CA01B901A70196010E949E0B605DF80175
:1006C00062938F01211531054105510589F7309756
:1006D00029F0CF010E94D1028C01C6CF10E000E0CA
:1006E000C3CFCF93DF93CAE2D1E060E088810E945C
:1006F000E800229681E0C233D807B9F761E086E0CE
:100700000E94E8000E946C0160933B0270933C02DF
:1007100080933D0290933E0285E391E00E94D102D6
:100720008091390290913A020E94EC0286E090E0BA
:100730009093400280933F02DF91CF9108951F92E2
:100740000F920FB60F9211242F933F938F939F9385
:10075000AF93BF938091440290914502A0914602CD
:10076000B09147023091430223E0230F2D3758F513
:100770000196A11DB11D20934302809344029093E2
:100780004502A0934602B09347028091480290919F
:100790004902A0914A02B0914B020196A11DB11DE0
:1007A0008093480290934902A0934A02B0934B026F
:1007B000BF91AF919F918F913F912F910F900FBE5D
:1007C0000F901F90189526E8230F0296A11DB11DCA
:1007D000D2CF1F920F920FB60F9211242F933F93F7
:1007E0004F935F936F937F938F939F93AF93BF9339
:1007F000EF93FF938CE492E00E94F701FF91EF9159
:10080000BF91AF919F918F917F916F915F914F9128
:100810003F912F910F900FBE0F901F9018951F9230
:100820000F920FB60F9211242F938F939F93EF93F4
:10083000FF93E0915C02F0915D028081E0916202A1
:10084000F091630282FD1BC09081809165028F5FF1
:100850008F7320916602821741F0E0916502F0E00B
:10086000E45BFD4F958F80936502FF91EF919F911F
:100870008F912F910F900FBE0F901F901895808130
:10088000F4CF1F920F920FB60F9211242F933F9324
:100890004F935F936F937F938F939F93AF93BF9388
:1008A000CF93EF93FF9399B1C091D8018091080243
:1008B00030910502292F209523238923822B209113
:1008C0006D00C927C223C8239093D801CC23C1F15E
:1008D000C0FF05C0E091D901F091DA010995C1FF8F
:1008E00005C0E091DB01F091DC010995C2FF05C074
:1008F000E091DD01F091DE010995C3FF05C0E091B3
:10090000DF01F091E0010995C4FF05C0E091E1012C
:10091000F091E2010995C5FF05C0E091E301F09176
:10092000E4010995C6FF05C0E091E501F091E601FB
:100930000995C7FF05C0E091E701F091E80109952D
:10094000FF91EF91CF91BF91AF919F918F917F9147
:100950006F915F914F913F912F910F900FBE0F902C
:100960001F9018951F920F920FB60F9211242F937C
:100970003F934F935F936F937F938F939F93AF9327
:10098000BF93CF93EF93FF9396B1C091E90180910C
:10099000090230910602292F209523238923822BD7
:1009A00020916C00C927C223C8239093E901CC236E
:1009B00051F1C0FF05C0E091EA01F091EB0109950A
:1009C000C1FF05C0E091EC01F091ED010995C2FF76
:1009D00005C0E091EE01F091EF010995C3FF05C05C
:1009E000E091F001F091F1010995C4FF05C0E0919B
:1009F000F201F091F3010995C5FF05C0E091F40102
:100A0000F091F5010995FF91EF91CF91BF91AF91D1
:100A10009F918F917F916F915F914F913F912F9116
:100A20000F900FBE0F901F9018951F920F920FB648
:100A30000F9211242F933F934F935F936F937F9364
:100A40008F939F93AF93BF93CF93EF93FF9393B104
:100A5000C091F80180910A0230910702292F209558
:100A600023238923822B20916B00C927C223C8230B
:100A70009093F801CC2351F1C0FF05C0E091F9013A
:100A8000F091FA010995C1FF05C0E091FB01F091D9
:100A9000FC010995C2FF05C0E091FD01F091FE0146
:100AA0000995C3FF05C0E091FF01F091000209958F
:100AB000C4FF05C0E0910102F09102020995C5FF53
:100AC00005C0E0910302F09104020995FF91EF91B6
:100AD000CF91BF91AF919F918F917F916F915F91D6
:100AE0004F913F912F910F900FBE0F901F9018952F
:100AF0001F920F920FB60F9211242F933F934F9393
:100B00005F936F937F938F939F93AF93BF93EF9375
:100B1000FF93E091D601F091D7010995FF91EF91F4
:100B2000BF91AF919F918F917F916F915F914F9105
:100B30003F912F910F900FBE0F901F9018951F920D
:100B40000F920FB60F9211242F933F934F935F9301
:100B50006F937F938F939F93AF93BF93EF93FF9385
:100B6000E091D401F091D5010995FF91EF91BF91EA
:100B7000AF919F918F917F916F915F914F913F9135
:100B80002F910F900FBE0F901F901895789484B5F9
:100B9000826084BD84B5816084BD85B5826085BD79
:100BA00085B5816085BD80916E00816080936E0007
:100BB00010928100809181008260809381008091F9
:100BC00081008160809381008091800081608093AA
:100BD00080008091B10084608093B1008091B0006A
:100BE00081608093B00080917A00846080937A0065
:100BF00080917A00826080937A0080917A0081608F
:100C000080937A0080917A00806880937A001092B5
:100C1000C100E0915C02F0915D0282E08083E0918E
:100C20005802F09159021082E0915A02F0915B0251
:100C30008FEC808310926402E0916002F091610277
:100C400086E08083E0915E02F0915F0280818061A6
:100C50008083E0915E02F0915F02808188608083F2
:100C6000E0915E02F0915F02808180688083E09174
:100C70005E02F0915F0280818F7D808361E086E07B
:100C80000E94160161E088E00E94160161E089E09F
:100C90000E94160161E08AE00E94160161E08BE08B
:100CA0000E94160102E211E0C8E7D1E028E9422ED5
:100CB00020E0522E3DE6632E712C46E9E42E40E002
:100CC000F42E5CE6C52ED12C64E9A62E60E0B62E8B
:100CD0007BE6872E912CD8013C900E5F1F4F60E081
:100CE000832D0E941601832D8F7737FC05C09EEF60
:100CF000980F923008F4A7C090E0FC01E255FF4F36
:100D00002491FC01E656FF4F3491323009F05EC069
:100D100040910A02422B40930A0240910702422B63
:100D200040930702FC01E859FF4FE491323009F08B
:100D30005BC0F0E0EE0FFF1FE750FE4FD183C08392
:100D4000F501A591B4918C918093F8019092F701EF
:100D50008092F60180916800816080936800A09184
:100D6000F601B091F701EC912E2B2C93EAE2F1E021
:100D7000E017F10709F0AFCF81E090E090931802FF
:100D8000809317021092420210924102EE24E394E3
:100D9000F12CA2E02A2E312C0FEF1FEF809141029F
:100DA000909142028130910509F4B4C308F474C0F3
:100DB000029709F47DC120E030E0232B79F30E94F3
:100DC000E301882349F30E940000E6CF333009F0A5
:100DD000ECC340910902422B409309024091060264
:100DE000422B409306029ECF3330A9F4F0E0EE0F81
:100DF000FF1FE651FE4FD183C083F701A591B49147
:100E00008C918093E901D092F701C092F601809114
:100E100068008260A2CF343009F0A1CFF0E0EE0F7D
:100E2000FF1FE752FE4FD183C083F201A591B49119
:100E30008C918093D8017092F7016092F6018091B5
:100E4000680084608ACF9FB7F894823099F4D09379
:100E5000D501C093D401E898809169008C7F80937C
:100E6000690080916900816080936900E09AE89A46
:100E70009FBF7CCFD093D701C093D601E9988091D2
:100E80006900837F8093690080916900846080930A
:100E90006900E19AE99AECCF8091150290911602CF
:100EA000009709F49DC0019709F085CF0E946C015D
:100EB0004B015C018091110290911202A0911302EA
:100EC000B0911402A5019401281B390B4A0B5B0B4E
:100ED000DA01C9010F97A105B1058CF1C0910F028C
:100EE000D091100261E086E00E941601209709F07F
:100EF00098C060E086E00E94E800209100013091F7
:100F0000010180910F0290911002820F931F909324
:100F1000100280930F02009719F08F3F910539F46A
:100F20003195219531093093010120930001809280
:100F3000110290921202A0921302B092140283E066
:100F40000E94BF00019759F550E450937C008091B6
:100F50007A00806480937A0080917A0086FDFCCFCD
:100F6000909178008091790089279827892797FFA9
:100F700002C081509F4F892F990F990B0196909332
:100F800018028093170260E086E00E94E800109249
:100F90001602109215023092420220924102809174
:100FA0000B0290910C02A0910D02B0910E02881AD2
:100FB000990AAA0ABB0A80E1881687E29806A1046A
:100FC000B1040CF4F8CE60E086E00E94E8001092D4
:100FD000160210921502F0924202E0924102EBCE0C
:100FE0008EE491E00E94DE0285E791E00E94DE023D
:100FF0000E946C0160930B0270930C0280930D02AF
:1010000090930E020E946C01609311027093120281
:101010008093130290931402F0921602E09215024C
:10102000CACECF3FD10511F461E064CFE8ECF0E027
:101030008491833019F140F48130B1F08230C9F0ED
:10104000C038D1058CF755CF873011F1883041F188
:101050008430B1F780918000806280938000D093CB
:101060008B00C0938A0049CF84B5806884BDC7BD1A
:1010700044CF84B5806284BDC8BD3FCF80918000DD
:10108000806880938000D0938900C093880035CF1A
:101090008091B00080688093B000C093B3002DCFE2
:1010A0008091B00080628093B000C093B40025CFDF
:1010B000E0913F02F0914002E730F10508F07BCE6D
:1010C000EC59F74F0C94E30B94086B08A708F2084F
:1010D0002E098109470A10932E0200932D021093C6
:1010E0002602009325021093300200932F021093E2
:1010F00028020093270210933202009331021093CA
:101100002A020093290210933402009333021093B1
:101110002C0200932B02F0920501E0920401309220
:10112000400220923F0247CE8BE891E00E94DE020F
:10113000809117029091180290930301809302010D
:101140000E948602F0924002E0923F0234CE0E945A
:101150006C01CB010E94610BD0E0C0E00E945C0BEF
:1011600064E070E00E94CF0B41E020912D023091AD
:101170002E022817390709F040E020912F02309104
:1011800030028217930709F441E020913102309137
:1011900032022817390709F441E0209133023091D7
:1011A00034028217930751F0411108C0FE01EE0F7F
:1011B000FF1FE35DFD4F918380832196C430D105ED
:1011C0006CF20E946C016093190270931A02809372
:1011D0001B0290931C02A3E0B0E0B0934002A093E6
:1011E0003F02E9CD0E946C018090190290901A0292
:1011F000A0901B02B0901C029B01AC012819390978
:101200004A095B0949015A01CAE2D1E061E08881DB
:101210000E94E800229631E0C233D307B9F78091EB
:101220000A0190910B01092E000CAA0BBB0B88152B
:101230009905AA05BB050CF0BECD0E946C01609318
:101240001D0270931E0280931F029093200244E0BF
:1012500050E05093400240933F02ADCD0E946C019C
:1012600080901D0290901E02A0901F02B09020025C
:101270009B01AC01281939094A095B0949015A0146
:10128000C0910801D0910901C851DC4F9E01D7FFE0
:1012900002C02D5F3F4F3595279535952795032E35
:1012A000000C440B550BC501B4010E946C0B220FBE
:1012B000331F235D3D4FD901ED91FC91EE0FFF1FD0
:1012C000E65DFE4F60E080810E94E800CE01DD0F08
:1012D000AA0BBB0B88159905AA05BB050CF06BCDB5
:1012E0000E946C016093350270933602809337023E
:1012F00090933802E5E0F0E0F0934002E0933F0283
:101300005ACD0E946C018090350290903602A090D8
:101310003702B0903802AB01BC01481959096A097B
:101320007B0980910601909107018053984F092E07
:10133000000CAA0BBB0B84179507A607B70714F47C
:101340000E9471038091040190910501EDE2F2E0A9
:10135000A5E2B2E041E005970CF072C00E946C017A
:101360004B015C018091210290912202A091230205
:10137000B0912402A5019401281B390B4A0B5B0B89
:10138000DA01C9014497A105B1050CF414CDD0E0F0
:10139000C0E06E01CC0CDD1CF601EE5DFE4F8081DD
:1013A0000E94BF000197F1F521E080912502909104
:1013B00026028C179D0709F020E08091270290916A
:1013C00028028C179D0709F421E080912902909151
:1013D0002A028C179D0709F421E080912B0290913D
:1013E0002C028C179D07F1F021111CC0F601E65D5F
:1013F000FE4F61E080810E94E8008091040190919D
:101400000501E4E0F0E0E81BF90BEE0FFF1FEB5DD8
:10141000FD4FD183C0830196909305018093040111
:10142000C4E0D0E02196C430D1050CF4B2CF809254
:10143000210290922202A0922302B0922402BBCCFD
:10144000219131918D919D912817390709F040E044
:1014500032E0E533F307A1F74423B1F0809139027C
:1014600090913A02019690933A02809339020E9439
:1014700086028FE891E00E94D1028091390290911A
:101480003A020E94EC025ECE0E94710394CC0E944C
:101490006C0180903B0290903C02A0903D02B09085
:1014A0003E029B01AC01281939094A095B0949012F
:1014B0005A0139EE831633E09306A104B1040CF40B
:1014C0007ACC60E086E00E94E80041E1841647E2C1
:1014D0009406A104B1040CF46ECC80ED97E09093D7
:1014E0000B0180930A019093090180930801A8E8F9
:1014F000B3E1B0930701A093060110923A02109253
:10150000390210924202109241021092400210924F
:101510003F0251CC82EA91E00E94DE028FEA91E024
:101520000E94DE028CE492E00E9466020E94470163
:101530002B013C0188EE882E83E0982EA12CB12C43
:101540000E9447016419750986099709683E73402E
:1015500081059105A8F3B1E08B1A9108A108B108A3
:10156000E8EE4E0EE3E05E1E611C711C81149104D6
:10157000A104B10429F783B7817F846083BF83B757
:10158000816083BF83B7816083BF889583B78E7F77
:1015900083BF83B78E7F83BF8BEC91E00E94DE0216
:1015A000109242021092410206CC343009F0BACBBC
:1015B00040910802422B4093080240910502422BC1
:1015C00040930502AFCBECE4F2E01382128288EE86
:1015D00093E0A0E0B0E084839583A683B78384E1A1
:1015E00091E09183808385EC90E09587848784ECFB
:1015F00090E09787868780EC90E0918B808B81ECE0
:1016000090E0938B828B82EC90E0958B848B86ECC0
:1016100090E0978B868B118E128E138E148E089508
:101620008F929F92AF92BF92CF92DF92EF92FF92F2
:10163000CF93DF93EC01688179818A819B81611569
:1016400071058105910521F464E279ED8BE597E060
:101650002DE133EF41E050E00E946C0B49015A014B
:101660009B01AC01A7EAB1E40E948B0B6B017C01EA
:10167000ACEEB4EFA50194010E94990BDC01CB0103
:101680008C0D9D1DAE1DBF1DB7FF03C00197A109A5
:10169000B04888839983AA83BB839F77DF91CF91DA
:1016A000FF90EF90DF90CF90BF90AF909F908F9082
:1016B00008950E94100B08958CE091E00E94100B99
:1016C0000895B0E0A0E080930C0190930D01A093E9
:1016D0000E01B0930F010895052E97FB1EF40094A0
:1016E0000E94830B57FD07D00E949E0B07FC03D07E
:1016F0004EF40C94830B50954095309521953F4FB7
:101700004F4F5F4F089590958095709561957F4FED
:101710008F4F9F4F08950E94C00BA59F900DB49FBF
:10172000900DA49F800D911D11240895B7FF0C9476
:101730008B0B0E948B0B821B930B0895A1E21A2E38
:10174000AA1BBB1BFD010DC0AA1FBB1FEE1FFF1F65
:10175000A217B307E407F50720F0A21BB30BE40BB5
:10176000F50B661F771F881F991F1A9469F76095FC
:101770007095809590959B01AC01BD01CF010895B6
:10178000A29FB001B39FC001A39F700D811D1124C2
:10179000911DB29F700D811D1124911D089597FB1D
:1017A000072E16F4009407D077FD09D00E94E90BAC
:1017B00007FC05D03EF4909581959F4F0895709554
:1017C00061957F4F0895EE0FFF1F0590F491E02D76
:1017D0000994AA1BBB1B51E107C0AA1FBB1FA61778
:1017E000B70710F0A61BB70B881F991F5A95A9F7CA
:1017F00080959095BC01CD0108955058BB27AA272C
:101800000E94150C0C94F40C0E94E60C38F00E9417
:10181000ED0C20F039F49F3F19F426F40C94E30CFE
:101820000EF4E095E7FB0C94DD0CE92F0E94050D0A
:1018300058F3BA17620773078407950720F079F405
:10184000A6F50C94270D0EF4E0950B2EBA2FA02DC3
:101850000B01B90190010C01CA01A0011124FF275D
:10186000591B99F0593F50F4503E68F11A16F04058
:10187000A22F232F342F4427585FF3CF4695379557
:101880002795A795F0405395C9F77EF41F16BA0B1C
:10189000620B730B840BBAF09150A1F0FF0FBB1FCA
:1018A000661F771F881FC2F70EC0BA0F621F731F13
:1018B000841F48F4879577956795B795F7959E3F70
:1018C00008F0B0CF9395880F08F09927EE0F979501
:1018D000879508950E94710C6894B1110C94280D9D
:1018E00008950E940D0D88F09F5798F0B92F992701
:1018F000B751B0F0E1F0660F771F881F991F1AF0FB
:10190000BA95C9F714C0B13091F00E94270DB1E02B
:1019100008950C94270D672F782F8827B85F39F02A
:10192000B93FCCF3869577956795B395D9F73EF493
:1019300090958095709561957F4F8F4F9F4F08953B
:10194000E89409C097FB3EF4909580957095619559
:101950007F4F8F4F9F4F9923A9F0F92F96E9BB270F
:101960009395F695879577956795B795F111F8CF8B
:10197000FAF4BB0F11F460FF1BC06F5F7F4F8F4FF6
:101980009F4F16C0882311F096E911C0772321F0EC
:101990009EE8872F762F05C0662371F096E8862F84
:1019A00070E060E02AF09A95660F771F881FDAF7DB
:1019B000880F9695879597F9089597F99F6780E81E
:1019C00070E060E008959FEF80EC089500240A9491
:1019D0001616170618060906089500240A9412160A
:1019E0001306140605060895092E0394000C11F43D
:1019F000882352F0BB0F40F4BF2B11F460FF04C0EA
:101A00006F5F7F4F8F4F9F4F089557FD9058440F42
:101A1000551F59F05F3F71F04795880F97FB991F4D
:101A200061F09F3F79F0879508951216130614060A
:101A3000551FF2CF4695F1DF08C016161706180697
:101A4000991FF1CF86957105610508940895E89472
:101A5000BB2766277727CB0197F908950E94410D90
:101A60000C94F40C0E94E60C38F00E94ED0C20F06F
:101A7000952311F00C94DD0C0C94E30C11240C94C0
:101A8000280D0E94050D70F3959FC1F3950F50E04E
:101A9000551F629FF001729FBB27F00DB11D639F20
:101AA000AA27F00DB11DAA1F649F6627B00DA11DC6
:101AB000661F829F2227B00DA11D621F739FB00D6C
:101AC000A11D621F839FA00D611D221F749F3327DC
:101AD000A00D611D231F849F600D211D822F762F75
:101AE0006A2F11249F5750409AF0F1F088234AF052
:101AF000EE0FFF1FBB1F661F771F881F91505040BE
:101B0000A9F79E3F510580F00C94DD0C0C94280D34
:101B10005F3FE4F3983ED4F3869577956795B79544
:101B2000F795E7959F5FC1F7FE2B880F911D96955E
:0A1B3000879597F90895F894FFCF08
:101B3A000500010001007017B80BD0070100000072
:101B4A000000000019027901A6016602D701B50159
:101B5A00C9010300040005000200080009000A0088
:101B6A000B000D0A0047616D65204F7665722E20C5
:101B7A0046696E616C2053636F72653A200057653F
:101B8A006C636F6D6520746F20746865205265738D
:101B9A00746F726520746865204C696768742047A1
:101BAA00616D652E005072657373204B6579204212
:101BBA003120746F20537461727400476F21004E94
:101BCA00657720506F696E74212053636F72653A8E
:101BDA002000676F20736C6565702E2E2E200070B2
:101BEA007265737320616E7920627574746F6E20EA
:101BFA00746F2077616B652075700057616B652083
:041C0A005570000011
:00000001FF
